:020000040800F2
:108000000348044B834202D0034B03B11847704727
:10801000000400200004002000000000064B074977
:10802000C91A891048BF0131491003D0044B0BB164
:1080300001481847704700BF0004002000040020DA
:108040000000000010B5064C237843B9FFF7D8FFB5
:10805000044B13B10448AFF300800123237010BD1B
:108060000004002000000000B0C7000808B5044B61
:108070001BB104490448AFF30080BDE80840CDE7D8
:108080000000000004040020B0C7000870B5860797
:1080900047D0541E002A3ED0CAB2034601E0013C3C
:1080A00039D303F8012B9D07F9D1032C2CD9CDB27C
:1080B0000F2C05EB052505EB054535D9A4F1100C72
:1080C00003F1100E1A462CF00F064FEA1C1CB644A2
:1080D000C2E90055C2E9025510327245F8D10CF1DF
:1080E000010214F00C0F04F00F0C03EB021213D07A
:1080F000ACF1040323F003030433134442F8045B9C
:108100009342FBD10CF003042CB1C9B21C4403F818
:10811000011BA342FBD170BD64461346002CF4D171
:10812000F9E703461446C0E71A46A446E0E700BF55
:108130002DE9F04F55EC104B85B0002D9046894647
:10814000DDE90E6250DB0021652A22F0200A197059
:1081500053D030DC452A50D0462A2ED003AB4A46B5
:108160000221019302AB45EC104B0093334600F023
:10817000ABFBBAF1470F07462BD118F0010F4BD0DC
:1081800000EB0908204629460022002304F04EFA9D
:1081900000283FD1039B984506D930215A1C0392F1
:1081A0001970039B4345F9D3DB1B109A38461360C3
:1081B00005B0BDE8F08F662AD0D1032103AB4A4653
:1081C000019302AB45EC104B0093334600F07CFB6F
:1081D0000746BAF1460F07EB0908D3D13B78302B9D
:1081E0000FD033689844CDE72D2105F1004B652A67
:1081F00022F0200A5D461970ABD109F10109022174
:10820000DCE7002200232046294604F00FFA28B1BB
:10821000336898444346C7E7039BC5E7C9F10103A8
:1082200098443360AEE700BF002970B5027082B099
:1082300038DB2B23092943702CDD0DF107051B4E7C
:10824000AE46A6FB01320C46F4460EF1FF3ED208C4
:10825000632C02EB8203A1EB4303114603F13003CD
:108260000CF8013CEDDCACF102033031841CAB4274
:108270000EF8011C0BD2421C13F8011BAB4202F892
:10828000011FF9D10DF10903A3EB0C031C44201AC3
:1082900002B070BD3023041D19448370C170201AD0
:1082A00002B070BD49422D23C4E700BFCDCCCCCC79
:1082B0002DE9F04F8DB00C4616461F46DDF858806C
:1082C000054602F00BFB03681846069302F0D6FA47
:1082D000002307900A93D8F80030D4F800A00733A1
:1082E00094F818B023F0070303F10802C8F800203F
:1082F00093ED007B8DED047B9DED047B53EC172B00
:10830000904623F000494FF0FF32A44B40464946C7
:1083100084ED127B04F0BCF940B9404649464FF069
:10832000FF329E4B04F096F9002871D0DDE904017C
:1083300002460B4604F0ACF9002840F00A8261685E
:108340004AF480620BF0DF084B1C2FD081BBB8F1E0
:10835000470F2DD10121002322602846CDF804B01B
:10836000616003930AAB029309AB9DED040B00938C
:108370000DF12303FFF7DCFE81460999C81C80F24A
:10838000FE80ABF1020B5FFA8BFB01395A4604F118
:1083900050000991FFF748FF0A9A82461318012AF4
:1083A000236140F34081013323612AE006216160AB
:1083B000002322602846CDF804B003930AAB029351
:1083C00009AB9DED040B00930DF12303FFF7B0FE05
:1083D000B8F1470F8146D0D0BBF1650F0999D4D9C8
:1083E000BBF1660F00F024810A9B8B4200F3CE8024
:1083F00023682161DB0701D54B1C23614FF0000A84
:10840000A1659DF82330DBB12D2384F8433017E0BC
:10841000DDE904010022002304F012F910B12D233C
:1084200084F843302AF004025D4B4FF0000A2260CA
:108430005C4ABBF1470F8CBF9146994603232361E9
:1084400033460BAA21462846009701F04FFA013027
:1084500023D0236858052BD44A4623693146284641
:10846000B847013019D022689207E0680B9B19D5F4
:10847000984217DD4FF0000804F1190904E0E068A4
:108480000B9BC21A42450DDD01234A463146284660
:10849000B847013008F10108F1D14FF0FF300DB0BD
:1084A000BDE8F08F9842B8BF18460DB0BDE8F08F18
:1084B000BBF1650F32D900220023D4E9120104F088
:1084C000B5F8002872D00123374A31462846B8470C
:1084D0000130E2D0DDE9093A534502DB2268D107D9
:1084E000C2D531462846DDE90623B8470130D4D04D
:1084F000BAF1010FB7DD0AF1FF3A4FF0000904F1BC
:108500001A0801E0D145AED0012342463146284643
:10851000B847013009F10109F4D1BEE7DDF8288040
:10852000B8F1010F71DD01234A4631462846B847AC
:108530000130B2D031462846DDE90623B847013084
:10854000ABD00022002308F1FF3BD4E9120104F074
:108550006DF8002876D0B8F1010F60DD4FF000090A
:1085600004F11A0801E0D94559D0012342463146A9
:108570002846B847013009F10109F4D18DE7636855
:1085800099423FF7FEAE4FF0670B2DE70029D4BFAD
:10859000C1F102020122134423612FE7FFFFEF7FA5
:1085A000F4C90008F8C9000804CA0008099B002B98
:1085B00053DD0A9BD4F858B004935B45A8BF5B46D3
:1085C000002B984608DD4A4631462846B847013018
:1085D0003FF463AFD4F858B028EAE872934574DDED
:1085E0004FF0000A04F11A08934604E0A36DA3EBD0
:1085F0000B02524568DD0123424631462846B84702
:1086000001300AF1010AF1D147E7D9078BD44A4674
:10861000012331462846B84701303FF43EAF534668
:1086200004F150021AE72268D2077FF5EAAEBAE6F3
:10863000002963680ADD2161002B39D001330B4426
:108640002361DBE65B4609F10102E2E7002B34D14E
:108650002268D20731D401239EE70123494A3146DB
:108660002846B84701303FF418AFDDE9093A5AEA25
:10867000030324D031462846DDE90623B8470130FC
:108680003FF40BAF099B002B78DA4FF0000B04F19D
:108690001A0803E0099B5B425B456FDD01234246FC
:1086A00031462846B84701300BF1010BF2D1F4E610
:1086B0002268D0077FF5A2AEC0E702336CE72268DC
:1086C000D3077FF5D1AED5E79B46099B049A9A4222
:1086D00002DC2268D00708D531462846DDE90623AA
:1086E000B84701303FF4D9AE099B049AA2EB0B0ABC
:1086F000D31A9A45A8BF9A46BAF1000F0BDD09EBD1
:108700000B02534631462846B84701303FF4C5AE08
:10871000099B049AD31A2AEAEA7A53457FF7A3AE53
:108720004FF0000904F11A08DDF810B007E0099BCA
:10873000ABEB0303A3EB0A034B457FF794AE012396
:10874000424631462846B847013009F10109EED1C9
:10875000A3E6059B002B02DA2D2384F843302AF090
:108760000403094A4FF0000A2360084BBBF1470F8E
:108770008CBF914699460323236161E653464A46DE
:108780006CE600BF04CA000800CA0008FCC9000863
:108790002DE9F04F036985B00C69A342C0F29080C7
:1087A000013C01F1140500F11408814655F824300C
:1087B0004FEA840C58F8242005EB8407013308EBBA
:1087C000840B9A42B2FBF3F642D30020AA46C64677
:1087D000CDF80C8003468846CDE901C505465AF818
:1087E000042BDEF8001090B257454FEA124C06FBFE
:1087F00000508AB24FEA104580B206FB0C55A2EB3E
:1088000000021A44ABB24FEA1545C3EB224392B2C1
:1088100003EB114342EA03424FEA23434EF8042B91
:10882000DDD24146DDF80C80DDE901C558F80C3099
:1088300073B9ABF1040BD84504D307E0D84504F174
:10884000FF3403D25BF80439002BF7D0C9F810408D
:10885000484601F095FD00282EDB00224146944653
:1088600055F8040B0B681FFA80FEAF429AB24FEA2C
:108870001040A2EB0E026244C0EB224092B200EB29
:10888000134042EA00424FEA204C41F8042BE7D261
:1088900058F8242008EB84036AB9043B434504D804
:1088A00007E0984504F1FF3403D253F80429002A65
:1088B000F7D0C9F810400136304605B0BDE8F08F5A
:1088C000002005B0BDE8F08F2DE9F04FC5699FB0DD
:1088D000044600910C920A9357EC106B8DED040B3B
:1088E000002D00F07682296849B16A68012393401F
:1088F0004A608B6001F07AFA0022E3691A60B7F1EE
:108900000009C0F2B2800023289A1360784B33EA42
:10891000090300F0B080002200239DED047B51ECA0
:10892000170B8DED027B03F081FE804668B10123B9
:108930000A9A1360299B13B16E4B299A1360DFF8D2
:10894000C08140461FB0BDE8F08F9DED020B1CAA10
:108950001DA9204601F086FE83465FEA195540F0C6
:10896000A180DDE91C85454405F23243202B40F30C
:108970004A82C3F1400309FA03F905F2124326FAC9
:1089800003F349EA030003F06FFB013D0123A1F16A
:10899000F87115930022584B03F028FA4EA3D3E93F
:1089A000002303F0DBFB4EA3D3E9002303F020FAFE
:1089B00006460F46284603F067FB4BA3D3E9002386
:1089C00003F0CCFB02460B463046394603F010FA62
:1089D00006460F4603F072FE0022814609900023EE
:1089E0003046394603F02CFE002840F0FE81A8EB0B
:1089F0000508099D08F1FF33162D079300F2DD816C
:108A00003E4B03EBC503DDE90201D3E9002303F08C
:108A100017FE00287AD06B1E099300231493079B3E
:108A2000002BC0F2D08100230D93099B002B73DA39
:108A3000099B0D9AD21A0D925A42CDE910320023A9
:108A40000993009B092B71D8052B40F3E181043B6E
:108A500000250093009B023B032B00F28986DFE890
:108A600013F006040304F903DE0329F0004901238F
:108A7000CDF8149048E7C9F3130942F20F730A9A2C
:108A800059EA060913601DD0299BDFF87880002B76
:108A90003FF457AF08F10303299A404613601FB013
:108AA000BDE8F08FDDE90212CDF85480A5F2FF3564
:108AB000C2F313030846DDF8708043F07F5141F4A0
:108AC000401167E7299BDFF84080002B3FF439AF66
:108AD00008F10803E0E700BF61436F63A787D23F57
:108AE000B3C8608B288AC63FFB799F501344D33F9D
:108AF0000000F07F05CA00080000F83FD8C7000852
:108B000004CA000814CA000808CA0008B8F1000F17
:108B100040F3318514900D90079B099A13441092ED
:108B2000079300231193009B092B8DD90023012566
:108B30004FF0FF3200930B920E950C93E3690021E6
:108B400059600B9B1693204601F010F908900028FD
:108B500000F017860B9B089A0E2B8CBF002505F0A2
:108B60000105E3691A60002D00F0098110990029C0
:108B700040F35E81A74B01F00F020D1103EBC2031E
:108B8000D3E90067CB0540F12883A34B05F00F051F
:108B90004FF00308D3E90823DDE9020103F008FCE4
:108BA000CDE912018DB1DFF87092E80709D53046A2
:108BB000394608F10108D9E9002303F0CFFA064647
:108BC0000F466D1009F10809EFD132463B46DDE949
:108BD000120103F0EDFB81468A46149B43B100224B
:108BE0008E4B4846514603F02BFD002840F0CA84C6
:108BF000404603F049FA4A46534603F0AFFA884B21
:108C0000002203F0F5F80B9B0646A1F15077002BEC
:108C100000F09C80109B12930B9B17937D49484654
:108C2000179B01EBC303514613ED027BCDE9186797
:108C30008DED1A7B03F042FD074603F025FA02464C
:108C40000B4648465146303703F0D0F8089E894617
:108C50000E998046FFB2751CDDE91A23002900F049
:108C6000098300206F4903F0A3FBDDE9182303F01B
:108C7000BDF8377042464B4606460F4603F0FEFCF1
:108C8000002840F069850022CDF860B0DDF85CB0C6
:108C9000924617942BE00AF1010ADA4580F2EC843F
:108CA000304639460022604B03F058FA00225E4BF2
:108CB00006460F464046494603F050FA894680462C
:108CC00003F0FCFC044603F0DFF902460B463034A7
:108CD0004046494603F08AF832463B4605F8014BC8
:108CE0008046894603F0ACFC002840F0C984424627
:108CF0004B460020494903F079F832463B4603F0E1
:108D00009FFC0028C7D0DDF860B00899179C02E0EE
:108D10008D4200F08B842A4615F8013D392BF7D09F
:108D200001330891DBB22B70DDF82080089229E135
:108D3000404603F0A9F94A46534603F00FFA0022D1
:108D4000374B03F055F80646A1F15077484600220C
:108D5000364B514603F04AF832463B468046894638
:108D600003F08CFC002840F04184404649463246DE
:108D700007F1004303F064FC002840F0A1811D9B33
:108D8000002B03DB109A0E2A40F37B810E9A002AF7
:108D90007FD0009A012A40F31B840B9B119A5D1E21
:108DA000AA42C0F25383002BA2EB050580F2A084F7
:108DB0000D9B0B9AA3EB020857E301231493079B27
:108DC000002BBFF630AEC8F101030D9300230793CB
:108DD0002BE6102000F07AFDE061002800F0C2844C
:108DE000C0E90055C0E9025589E5484603F04CF951
:108DF00032463B4603F01AFC00287FF4F8AD09F137
:108E0000FF330993F3E5C3F1200306FA03F0BAE553
:108E100001251FE6D8C70008C8C800080000F03FB9
:108E200000001C400000E03F00002440000014400F
:108E300000F00683109B5E42B44B06F00F0203EB7A
:108E4000C203DDE90201D3E9002303F087F93611FB
:108E5000CDE9120100F07484AD4F00234FF00208F9
:108E600081468A46F1070AD54846514608F101086D
:108E7000D7E9002303F072F92B4681468A46761023
:108E800007F10807EED1002B7FF4A7AEDDE9129AB7
:108E9000A3E60023119DDDF834801E460E93B8F141
:108EA000000F0DDD079A002A0ADD424513460D9991
:108EB000A8BF4346C91AA8EB0308D31A0D9107931C
:108EC000119B53B10E9B13B1002D40F0E282594625
:108ED000119A204601F070F983460121204601F0E5
:108EE000A3F8099B0746002B40F06281009B012BF1
:108EF00040F37A81012307990B4413F01F0308D034
:108F0000C3F12002042A00F373820AD0C3F13C03A8
:108F100000E01C230D9A98441A440D92079A1A44B3
:108F200007920D9B002B05DD59461A46204601F09D
:108F3000B3F98346079B002B05DD39461A462046C8
:108F400001F0AAF90746009B022B149BD4BF002511
:108F50000125002B40F0B7800B9B002B26DC2DB3A6
:108F60000B9B002B00F04D820C9BDDF82080DB4337
:108F700012933946204600F039FF1EB13146204693
:108F800000F034FF5946204600F030FF0022129BCB
:108F9000089901330A700A9A1360299B002B3FF449
:108FA000D0AC404619601FB0BDE8F08F0E9B002B7F
:108FB00000F0A680B8F1000F05DD3146424620469C
:108FC00001F06AF90646099B002B40F03E83B1464A
:108FD000089D0B9A6B1E02971A44049B03F0010331
:108FE00009920B9302995846FFF7D2FB314682460D
:108FF000584601F0C5F9029980464A4620460AF1D2
:10900000300701F0DFF9C3680146002B40F06482AD
:109010000790584601F0B4F907990790204600F0F0
:10902000E5FE009B079A134340F089820B9B002BBF
:1090300000F06A83B8F1000FC0F26383099BA84671
:10904000AB4208F8017B00F04683594600230A2210
:10905000204600F0EFFE4E45834631464FF00003B8
:109060004FF00A02204600F0648200F0E3FE494619
:10907000064600230A22204600F0DCFE45468146D3
:10908000B0E7224B03EBC20393ED007B0C9B002B5C
:109090008DED007B80F213820B9B002B00F30F827F
:1090A00073B900221B4B51EC170B03F057F8024623
:1090B0000B46DDE9020103F0CDFA002800F09682AC
:1090C00000273E4650E73946584601F059F9002836
:1090D000BFF642AF109B59460A222046013B10932F
:1090E000002300F0A7FE0E9B8346002B40F0178361
:1090F000169B002B169B0B9302DC002D7FF430AFE8
:10910000DDF820800125DDF82C900DE0D8C700089F
:10911000C8C8000800001440594600230A2220460F
:1091200000F088FE0135834639465846FFF730FB8C
:109130004D4500F1300308F8013BEDDB0B9A0025AB
:10914000002ACCBF90464FF00108089A9044594637
:1091500001222046009301F09FF83946834601F032
:109160000FF9002840F35382089A02E0904500F07E
:10917000428218F8013CC24608F1FF38392BF5D07D
:10918000013388F80030109B12933946204600F0D6
:109190002DFE002E00F036822DB1B54203D02946B7
:1091A000204600F023FEDDF82080CDF820A0E5E683
:1091B00001461A46204600F0FFFF009B0746012BA0
:1091C00040F35981002309933B6907EB8303186936
:1091D00000F0D6FEC0F120038DE69DED027B4FF03E
:1091E00002088DED127BDDE4049B002B7FF482AE40
:1091F000DDE90412C2F31303002B7FF47BAEB24B04
:10920000134033B10D9B01330D93079B013307933B
:109210000123099A0993002A3FF46CAED4E7012395
:109220000E930C9B109A134416930133012B1E4688
:109230000B93B8BF0126172EE76940F2B0820122D6
:1092400004235B001146013203F11400B042F8D947
:10925000796078E401230E930C9B002B40F3868108
:109260001E4616930B93E6E700230E93D9E70023DF
:109270000E93F1E7DDE9180102F070FF089B1F7003
:10928000179B012BCDE90E0100F04782179B089A2E
:1092900015942C4613449A4600228C4B404649466E
:1092A00002F05CFF0F46064603F008FA814602F022
:1092B000EBFE02460B4609F130093046394602F012
:1092C00095FD04F8019BA24580468946E4D1159C92
:1092D00000227F4BDDE90E673046394602F088FDFB
:1092E00042464B4603F0ACF9002840F0AA813246D2
:1092F0003B460020764902F079FD42464B4603F09A
:10930000BDF9002840F096801D9B002BFFF6C1ADF3
:10931000109B0E2B3FF7BDAD6E4B109ADDF82080F1
:1093200003EBC20393ED007B8DED007BDDE902676B
:10933000DDE900233046394603F03AF803F0BEF980
:10934000814602F0A1FEDDE9002302F007FF02469C
:109350000B463046394602F049FD09F13003089AC0
:1093600013700B9B012B00F0FB812B46C5F101050F
:10937000CDF808B0CDF810809A46A8460794DDF8DD
:109380002CB0DDE900451DE022462B46304639462B
:1093900003F00EF803F092F9814602F075FE2246C2
:1093A0002B4602F0DBFE0B4602463946304602F001
:1093B0001DFD09F130030AF8013B0AEB08035B4588
:1093C00000F064810022414B02F0C8FE002200231D
:1093D00006460F4603F02AF90028D5D0DDF808B07C
:1093E000DDF81080079CCDF820A0109B1293C9E5F2
:1093F000C3F11C030D9A19441A4498440D92079125
:109400008FE539460522204600F014FD07465846F0
:10941000394600F0B5FF00287FF7A6ADDDF82080C3
:10942000089B01330893109B01331293312388F872
:1094300000309EE552461AF8013D302BFAD073E415
:109440004FF00208DDE9029AFFF7C7BB119B099AAA
:10945000EB1A119500251A44079B09920B9A1344A5
:1094600007930D9B984613440D930121204600F06D
:10947000DBFD064613E5049B002B7FF4A3AEDDE97C
:109480000401C1F313030A46002B3FF4B8AE099060
:109490009AE631462A46204600F08EFE06465A4697
:1094A0002046314600F0D6FD59468346204600F05E
:1094B0009DFC119B5B1B11933FF40FAD07E5089BCF
:1094C0005D1C984632E700BF0000F07F000024409A
:1094D0000000E03FD8C7000820460797029F00F031
:1094E00085FCB8F1000F079B08DB049A009902F095
:1094F000010241EA080852EA080231D15946012224
:109500002046009300F0C8FE3946834600F038FF3D
:109510000028009B40F31A81392B00F0E1800AF10A
:109520003103AA460AF8013B3546109B4E4612937A
:109530002BE600F07FFC45460646814652E5B8F131
:10954000000FC0F23081009B43EA08080B9B53EAEE
:10955000080800F02881002A7FF770AD3B46029F83
:10956000392B00F0BD80AA460133DBE70123CDE9AA
:109570000B33FFF7E3BAC8F10103079014900D9382
:10958000FFF7CABA0B9B002B3FF4D2AB169D002D00
:109590007FF7F5AB109B484651460022013B1293E2
:1095A0008A4B02F0DBFD02468A4608F10100914633
:1095B00002F06AFD53464A4602F0D0FD0022844B79
:1095C00002F016FC17950646A1F15077FFF726BB6F
:1095D000159A002A31D003F23343079A119D1A4499
:1095E00007920D9A90461A440D923EE70027DDF847
:1095F00020803E4614E7109B089A013312933123D2
:109600001370C2E5DDF82080CDF820A0BAE403D1C4
:10961000009BDB073FF5A8AD18F8013CC24608F1F6
:10962000FF38302BF8D0109B1293AEE5129B0891B7
:10963000013312933123FFF776BB1C9BC3F1360332
:10964000CBE755460899FFF766BB7168204600F0E6
:109650008DFB0546002800F09B80336906F10C0164
:109660000C3002339A0000F0BBF829460122204654
:1096700000F012FE8146ABE4DDE9174BFFF77FBB3C
:10968000DDF820800895DDE9174B7BE4DDF808B0B4
:10969000DDF81080079CCDF820A002460B4602F0B2
:1096A000A7FB06460F46DDE9002302F0E7FF60B99D
:1096B00030463946DDE9002302F0B8FF00283FF4C8
:1096C00094AE19F0010F3FF490AE109B4146089DF7
:1096D0001293FFF720BB3B463546029F4E4636E5C8
:1096E000A84639233546089A4E4608F8013B40E51E
:1096F000079B0B9A134407930D9B984613440D93B5
:10970000B3E63B46029F0CE73B46029F392BE7D06E
:10971000B8F1000F3FF703AF03E7AA46D8E531469B
:1097200000230A22204600F085FB169B0646002BEC
:10973000169B0B933FF73EAC002D7FF411AC39E440
:10974000DDE9129A4FF00208FFF747BA7FF4E9AE5D
:10975000DA077FF5E6AEDFE6DDF82080089511E454
:1097600008959AE702461B4BEF211B4800F0DAFAF6
:109770000025E369204629465D6000F0F7FA08906D
:10978000B8B9164B002240F2AF11134800F0CAFAE4
:109790000246124B40F2EF210F4800F0C3FA0021BD
:1097A0007960FFF7D0B9002A3B46029F3FF7A6AE8B
:1097B000B7E6E369089A0C951A604FF0FF3301226F
:1097C00016930E920B93FFF7DABA00BF0000244005
:1097D00000001C4018CA000830CA00085CCA000813
:1097E000844641EA000313F0030349D1403A23D3EE
:1097F0000B6803604B6843608B688360CB68C36011
:109800000B6903614B6943618B698361CB69C361F8
:109810000B6A03624B6A43628B6A8362CB6AC362E0
:109820000B6B03634B6B43638B6B8363CB6BC363C8
:1098300040304031403ADBD230320BD30B6803600A
:109840004B6843608B688360CB68C3601030103115
:10985000103AF3D20C3205D351F8043B40F8043BE4
:10986000043AF9D2043208D0D2071CBF11F8013BE8
:1098700000F8013B01D30B8803806046704700BFAE
:10988000082A13D38B07B1D010F00303AED0C3F175
:109890000403D21ADB071CBF11F8013B00F8013B9F
:1098A000A4D331F8023B20F8023B9FE7043AD9D316
:1098B000013A11F8013B00F8013BF9D20B78037033
:1098C0004B7843708B78837060467047024B01463B
:1098D000186801F02FBA00BF38020020024B014681
:1098E000186801F0A7BA00BF380200202DE9F84F30
:1098F00092461F460A690C468B680646DDF828909A
:109900009A42B8BF1A46CAF8002091F8433013B102
:109910000132CAF80020226891065DD5DAF80030DD
:109920000233CAF80030226812F0060F11461BD12C
:10993000E168994266DD4FF0000804F1190B05E07B
:10994000E568DAF80030ED1A45450CDD01235A468A
:1099500039463046C847013008F10108F0D14FF0D0
:10996000FF30BDE8F88F216894F84330003B18BF02
:1099700001238A060AD5E1185A1C302002332244FA
:1099800081F8430094F8451082F8431004F1430233
:1099900039463046C8470130E1D02368DAF8005034
:1099A00003F006032169042BD4E902201BD08A426C
:1099B00020DD4FF00008521A90441A34002501E0CF
:1099C000454517DA0123224639463046C84701305B
:1099D00005F10105F4D1C2E712F0060F0DD0003BEE
:1099E00018BF0123D2E7401B8A4220EAE078E2DC7C
:1099F0000028E2DC0020BDE8F88FDAF80030E168EA
:109A0000994298DC1146AFE72DE9F047174684B03C
:109A10000A7E0C46064698460C9D01F1430C002A2E
:109A200035D0A2F15803D9B2202969D8202B67D8A4
:109A3000DFE813F0E6006600660066006600660078
:109A400066006600660066006600AC007000660096
:109A500066006600660070006600660066006600CC
:109A600021008300C60066006600B6006600830021
:109A700066006600EC002B682268181D616928608A
:109A800010061B6802D4520600F1E0801960002322
:109A9000E14623613B4603AA21463046CDF80080CB
:109AA000FFF724FF013020D04A462369394630466B
:109AB000C047013019D02368E0689B07DDF80C909F
:109AC00018D5484516DD002504F1190A04E0E068C0
:109AD000A0EB0903AB420DDD012352463946304667
:109AE000C047013005F10105F1D14FF0FF3004B05E
:109AF000BDE8F0874845B8BF484604B0BDE8F087E8
:109B0000012004F1420984F842200023206184F8F6
:109B10004330BFE72A682368111D1806296002D464
:109B2000590600F195801068014600286268C0F26D
:109B3000938054484FF00A0E15E020682B6810F00F
:109B4000800F53F8041B02D1400648BF89B26F2A28
:109B50004C482B6014BF4FF00A0E4FF0080E002344
:109B6000626884F84330002AA26051DB236823F046
:109B70000403236000294BD1002A7BD1E146BEF1CA
:109B8000080F56D0ACEB0903236183E72A6804F180
:109B900042090120111D1268296084F84220B4E7AF
:109BA0002B6800216268181D2860D3F80090484691
:109BB00000F06CF8002863D0A0EB09006060A4E717
:109BC000236843F02003236078222F4884F845203F
:109BD0002A6813F0800F52F8041B03D113F0400FD2
:109BE00018BF89B22A60DA0702D543F02003236048
:109BF00019B9236823F0200323604FF0100EAEE75D
:109C00005823204884F845302368E1E72368DBE7E0
:109C10007546E1460A46B1FBF5F305FB131AAA4265
:109C2000194610F80A3009F8013DF3D2BEF1080FC9
:109C3000A8D12368DD07A5D5626823699A42A1DC13
:109C4000302309F1FF3989F800309BE719801EE7BE
:109C5000B2F90010084668E72D20002AA26084F8B7
:109C6000430002DB23F0040323600A254942054830
:109C7000AE46CEE7037804F1420984F842307EE72D
:109C8000606842E770CA000884CA00085FFA81FC75
:109C9000810744D00346511E22B909E09A0709D032
:109CA000013905D31846013302786245F6D1704771
:109CB00000207047184603290CD80029F8D0034625
:109CC000014401E08B42F3D0184613F8012B6245A2
:109CD000F8D1704710B50CEB0C24024604EB044499
:109CE00002E00439032915D9104652F8043B6340B9
:109CF000A3F1013E2EEA030313F0803FF1D00346A7
:109D0000014401E08B4208D0184613F8012B62454C
:109D1000F8D110BD10460029F1D1002010BD114628
:109D2000C9E700BF0A4D14461A4603462E680D4681
:109D300000B5F06885B044B106490095CDE901143D
:109D4000054901F013F900F0E3FE04490C46F4E77D
:109D50003802002098CA0008A8CA0008A4CA00084F
:109D600008B513460022FFF7DDFF00BF70B5C669D6
:109D700005460C465EB1F368A3B153F82400E8B180
:109D8000026843F824200023C0E9033370BD10208B
:109D9000FFF79CFD0646E861E8B10023C0E9003307
:109DA000C0E9023321220421284600F08BFFEB6931
:109DB000F060DB68002BE0D1002070BD0121284657
:109DC00001FA04F56A1D920000F07CFF0028F3D030
:109DD000C0E90145D7E70246024B6B210248FFF775
:109DE000A1FF00BF18CA0008D8CA000870B5C6692C
:109DF00005460C464EB13CB1EB696268DB6853F82E
:109E00002210216043F8224070BD1020FFF75EFD54
:109E1000E86120B1C0E90066C0E90266EBE70246EE
:109E2000024B8F210248FFF77DFF00BF18CA0008D0
:109E3000D8CA00082DE9F04107460E461C460D69B8
:109E400001F1140E0020DEF8001001308BB28542C3
:109E50004FEA114102FB03434FEA134C9BB202FB52
:109E600001CC03EB0C434FEA1C444EF8043BEADC04
:109E70003CB1B368AB4207DD06EB850301355C619D
:109E800035613046BDE8F081716838460131FFF731
:109E90006DFF804690B1326906F10C010C30023240
:109EA0009200FFF79DFC314646463846FFF79EFF7D
:109EB00006EB850301355C613561E2E70246024B42
:109EC000BA210248FFF72EFF5CCA0008D8CA000872
:109ED0002DE9F8431E4617460833264A0C46092E3C
:109EE00082FB03124FEAE3730546C3EB620338DDDE
:109EF0004FF0010C00214FEA4C0C01316345FADCB4
:109F00002846FFF733FF014668B3089B092F4361DA
:109F10004FF00103036112DC0A340927BE420BDD56
:109F2000F61B264414F8013B0A222846303BFFF773
:109F300081FFB4420146F5D10846BDE8F88304F13B
:109F400009093C44C84618F8013B0A222846303B20
:109F5000FFF770FFA0450146F5D1A7F108044C4476
:109F6000DCE70021CCE70246034BD3210348FFF78F
:109F7000D9FE00BF398EE3385CCA0008D8CA000891
:109F8000B0F5803F034618D203041020B3F1807F60
:109F900001D208301B02B3F1805F01D204301B01F3
:109FA000B3F1804F03D3002B06DB013070479B00D9
:109FB00005D45B0005D4202070470020E6E702307E
:109FC00070470330704700BF0368014613F0070273
:109FD00007D0DA071FD4980721D55B0801200B6052
:109FE000704798B2A0B11046DAB20AB908301B0A1D
:109FF0001A0701D104301B099A0701D102309B08CE
:10A00000DA0703D45B0800F1010006D00B6070474B
:10A010001B0C1020E8E700207047202070479B08A9
:10A0200002200B60704700BF10B50C460121FFF7FE
:10A030009DFE024618B10123C0E9043410BD034B54
:10A0400040F245110248FFF76DFE00BF5CCA0008F0
:10A05000D8CA00082DE9F04FD1F8108085B01569F5
:10A060000E469246A84505DB2A46534645468A4693
:10A0700090461E4605EB0804DAE90113A342B8BF77
:10A080000131FFF773FE002800F08B8000F1140708
:10A0900007EB840E774505D23B46002243F8042B9C
:10A0A0009E45FBD814360AF1140906EB880809EB23
:10A0B0008505464568D2A5EB0A030AF1150ACDF8D5
:10A0C00008E0AE46153B039423F0030304335545E3
:10A0D0002CBF9B464FF0040B824605E0090C2CD1A7
:10A0E000B04507F104074CD956F8041B8DB2002D7A
:10A0F000F4D0CC463C46002301965CF8040B216862
:10A1000086B2E6458AB24FEA104005FB06224FEAC6
:10A1100011411A4405FB001101EB124192B24FEAC2
:10A12000114342EA014244F8042BE6D8019E47F865
:10A130000B3056F8041C090CD2D03B68002248466C
:10A140003D461C46944602889BB201FB02C202EBCC
:10A15000144243EA024345F8043B50F8043B2C68A0
:10A160004FEA134C7045A3B201FB0C3303EB1243CF
:10A170004FEA134CE7D3B04547F80B3007F104071B
:10A18000B2D85046DDE902E4002C02DC05E0013CD7
:10A1900003D05EF8043D002BF9D0046105B0BDE8A2
:10A1A000F08F0246024B4FF4B1710248FFF7BAFD3F
:10A1B0005CCA0008D8CA000812F003032DE9F04178
:10A1C000144682B007462DD10E46A4101CD0FA6961
:10A1D0008AB39568002D39D0E3074FF0000806D404
:10A1E000641011D0286898B10546E307F8D53146C8
:10A1F0002A463846FFF72EFF0346314638461E46AC
:10A20000FFF7F4FD6410EDD1304602B0BDE8F081F7
:10A210002A4629463846FFF71DFF28600546C0F844
:10A220000080E2E7013B184A52F823200023FFF7A1
:10A2300001FE0646C9E71020FFF748FB0246F86119
:10A24000E0B10023C0E90033C0E902330121384600
:10A250000192FFF78BFD019A054640B1012340F2C0
:10A260007121C0E90431002390600360B4E7024625
:10A27000064B40F245110648FFF754FD054B40F2EE
:10A28000B3110348FFF74EFDC8C700085CCA0008B9
:10A29000D8CA000818CA00082DE9F0470D469146B3
:10A2A00007464FEA621A2B69496803EB6218AB68EC
:10A2B00008F101049C4203DD5B0001319C42FBDCA0
:10A2C0003846FFF753FD064600284DD0BAF1000F7F
:10A2D00000F114000EDD0AF10502034600214FEAE9
:10A2E000820C06EB820243F8041B9342FBD1ACF1D3
:10A2F0001403184405F11403296919F01F0903EB2D
:10A30000810129D0C9F1200E84464FF0000A1A6855
:10A3100002FA09F242EA0A024CF8042B53F8042B21
:10A32000994222FA0EFAF2D84B1B05F11502153BA1
:10A3300023F003030433914238BF042340F803A001
:10A34000BAF1000F00D14446384629463461FFF780
:10A350004DFD3046BDE8F087043853F8042B994290
:10A3600040F8042FF9D8EEE70246034B4FF4EF71A3
:10A370000248FFF7D7FC00BF5CCA0008D8CA000833
:10A3800084460B690069C01A16D10CF1140C143103
:10A390000CEB830201EB830310B401E0944508D277
:10A3A00052F8044D53F8041D8C42F7D005D24FF0FB
:10A3B000FF305DF8044B7047704701205DF8044B97
:10A3C000704700BF2DE9F04F15460A6983B08846F3
:10A3D0002B69D21A002A40F08B8001F1140605F196
:10A3E000140101EB830106EB830302E09E4280F03F
:10A3F000828053F8044D51F8042D9442F6D078D35E
:10A400002B460024454698466968FFF7AFFC0028B4
:10A4100000F08C802E6905F1140B08F1140ED8F8A9
:10A42000103000F1140A05F110020EEB83094FF011
:10A43000000C0BEB86015746C460CDF804B05EF803
:10A44000044B52F8045F1FFA84FBF145ABB24FEAAC
:10A450001444A3EB0B03C4EB1544634404EB234403
:10A460009BB24FEA244C43EA044347F8043BE6D846
:10A47000A9EB080408F11508DDF804B0C145A4F102
:10A48000150434BF4FF000084FF00108A408B8F1DC
:10A49000000F04F101024FEA820208BF04220BEB15
:10A4A00002055244A94231D917462C4654F8043BC0
:10A4B0001FFA83F8A1424FEA134E6344C4449BB28F
:10A4C0000EEB2C4C43EA0C434FEA2C4C47F8043B70
:10A4D000ECD80139491B21F003010A4423B952F891
:10A4E000043D013E002BFAD0066103B0BDE8F08FB9
:10A4F00086DA012488E70021FFF738FC78B10122D1
:10A500000023C0E9042303B0BDE8F08FB8F1000FC9
:10A510004FEA840408BF00240AEB0402DEE7024687
:10A52000064B40F237210648FFF7FCFB0246034B7F
:10A5300040F245210248FFF7F5FB00BF5CCA000866
:10A54000D8CA000882B0174B8DED000B019A13405A
:10A55000A3F15073002B06DD00221946104641EC92
:10A56000100B02B070475B42B3F1A07F4FEA23515A
:10A5700009DA4FF4002300220B411046194641EC42
:10A58000100B02B0704714391E2907DD0122002389
:10A590001046194641EC100B02B070474FF00042D4
:10A5A000CA40F4E70000F07FF8B5046900F1140632
:10A5B00006EB840454F8045C271F2846FFF7E0FCF0
:10A5C000C0F120030A280B6034DDBE42A0F10B036A
:10A5D0001AD254F8080C2BB3C3F120079D40A4F104
:10A5E000080120FA07F298408E4245EA020545F03C
:10A5F0007F5343F4401319D254F80C1CF94008431C
:10A60000024643EC102BF8BD0B280AD005FA03F1E3
:10A61000002041F07F53024643F4401343EC102BDB
:10A62000F8BD002045F07F5343F44013024643EC4D
:10A63000102BF8BDC0F10B0CBE4225FA0CF141F015
:10A640007F5343F4401308D30021153005FA00F07E
:10A650000843024643EC102BF8BD54F8081C21FABD
:10A660000CF1F2E72DE9F0430E4683B001211546C7
:10A6700059EC108BFFF77AFB0446002846D0C9F34B
:10A680000A57C9F313030FB143F480130193B8F1D0
:10A69000000313D101A8FFF797FC019B0122203092
:10A6A000636122610FB3A7F233470744C0F135005D
:10A6B00037602860204603B0BDE8F0836846009309
:10A6C000FFF782FC019BF8B1C0F12002009903FA68
:10A6D00002F2C3400A430193002B6261A3610CBFE5
:10A6E000012202222261002FDDD104EB8203A0F2BD
:10A6F000324030601869FFF743FCC0EB421028601D
:10A70000204603B0BDE8F083009AE5E70246034B1C
:10A7100040F20F310248FFF705FB00BF5CCA00089A
:10A72000D8CA00082DE9F04383B0884681466946BF
:10A73000FFF73AFF01A9404655EC104BFFF734FFF5
:10A74000D8F81030D9F81020D21ADDE9003159ECD0
:10A75000108B5B1A03EB4213002B0DDD05EB035747
:10A760003D4642464B462046294601F021FE41EC3B
:10A77000100B03B0BDE8F083C3EB033309EB0351C7
:10A780008946EEE7172870B506460CDD00200A4919
:10A7900000240A4D22462B4601F0E0FC013EF9D18F
:10A7A00041EC100B70BD064B03EBC003D3E9040171
:10A7B00041EC100B70BD00BF0000F03F00002440D2
:10A7C000C8C70008013902F114034FEA611C11697E
:10A7D00003EB81010CF1010C8B4200EB8C0C16D2C7
:10A7E00010B5A0F1040E53F8044B99424EF8044FF3
:10A7F000F9D88B1A153B23F003030433184484451E
:10A8000004D9002340F8043B8445FBD810BD84459F
:10A8100005D9002340F8043B8445FBD870477047B6
:10A8200003694A111430934209DA00EB830302E012
:10A8300053F8042DAAB98342FAD80020704700EBE0
:10A840008203F8DD11F01F01F5D010B450F822405A
:10A8500024FA01F28A40944209D001205DF8044BA9
:10A8600070470120704753F8042D002AF5D1834228
:10A87000F9D800205DF8044B704700BF20F00301B9
:10A8800010F00300C0F1000051F8043B00F1040C8B
:10A890004FEACC0C6FF000021CBF22FA0CF21343FB
:10A8A0004FF0010C4CEA0C2C4CEA0C4CA3EB0C02C4
:10A8B00022EA030212EACC1204BF51F8043B04302E
:10A8C000F4D0C2F1000102EA0102B2FA82F2C2F14E
:10A8D0001F0200EBD2007047F0307047004870470D
:10A8E0008403002000487047840300200020704744
:10A8F000024A0349034800F0F1BA00BF8802002071
:10A9000041AC00083C0200200C4B4168994210B554
:10A91000044601D000F094F9A168094B994202D095
:10A92000204600F08DF9E168064B994204D020469C
:10A93000BDE8104000F084B910BD00BF1C04002029
:10A9400084040020EC040020002070472DE9F84327
:10A950002A4900252A4C04230822DFF8B890C4F8BD
:10A96000381104F15C002946DFF8AC80254F264EF3
:10A97000E36025606566A561C4E90155C4E9045535
:10A98000FDF784FB214B0822294604F1C4006367CC
:10A990002567C4F8CC50C4F880502663C4E9084940
:10A9A000C4E90A87C4E91A55C4E91E55FDF76EFBD0
:10A9B00004F1680329460822C4F8883004F596702B
:10A9C000134BC4F8D850C4F8DC30C4F83451C4F880
:10A9D000E850C4E92398C4E92576C4E93455C4E9AC
:10A9E0003855FDF753FB04F1D003C4E93D98C4E9A1
:10A9F0003F76C4F8F030BDE8F88300BFF1A8000846
:10AA00001C0400209DB30008C5B300080900010024
:10AA10001200020035B300085DB30008F8B5254BFD
:10AA20000646D3F83831002B3DD0234FD7E9013407
:10AA3000013B04D51DE05A1C04F1680419D0B4F997
:10AA40000C50013B002DF6D11C4B0822294604F185
:10AA50005C006566E3602560A561C4E90155C4E951
:10AA60000455FDF713FBC4E90D55C4E91255204602
:10AA7000F8BD3D680DB12F46D8E74FF4D67130468A
:10AA800000F058F9044688B1042305600C302946CB
:10AA9000254640F8083C4FF4D072A060FDF7F6FA66
:10AAA0003C602F46C2E7FFF751FFBEE70C2338603A
:10AAB0003360DCE71C040020880200200100FFFF57
:10AAC000036A03B17047044B044AD3F83831026279
:10AAD000002BF7D13AE700BF1C04002009A90008A9
:10AAE000704700BF704700BF024A0020024900F0D3
:10AAF000F5B900BF88020020EDA80008024A002036
:10AB0000024900F0EBB900BF8802002049A9000803
:10AB1000062008B500F08EFE012001F047FE00BFC0
:10AB2000B1F90C302DE9F0411E070C4680463DD4AA
:10AB30004A68002A55DDE56A002D34D00022D8F895
:10AB40000060216AC8F8002013F4805256D1012316
:10AB50004046A847451C024665D0B4F90C30E56A6A
:10AB6000216A580705D56368D21A636B0BB1236C51
:10AB7000D21A00234046A847431C41D000236360FB
:10AB800023692360A389DF0400D56065616BC8F881
:10AB9000006041B104F14403994202D0404600F004
:10ABA00049F9002363630020BDE8F0810E69002E9F
:10ABB000F9D09B070D680E600CBF4B690023AD1BDD
:10ABC0008B600BE02B463246216A4046A76AB847A5
:10ABD000B0F1000CA5EB0C05664406DD002DF1DCA0
:10ABE000E1E70A6C002AA6DCDDE7B4F90C3043F09B
:10ABF00040034FF0FF30A381BDE8F081626DB0E704
:10AC0000D8F80010B4F90C301D29F0D80B4ACA400E
:10AC1000D507ECD50022626022692260DA04B5D53E
:10AC20000029B2D0B2E7D8F80030002B95D01D2B08
:10AC300001D0162BD9D1C8F80060B4E7010040203C
:10AC40000B69B3B110B5044682B008B1036A5BB1B9
:10AC5000B1F90C3013B9002002B010BD204602B08B
:10AC6000BDE81040FFF75CBF0191FFF729FF019994
:10AC7000EEE70020704700BFB8B10E4A38B503694F
:10AC8000044615682BB10DB12B6A53B1B4F90C30E1
:10AC90000BB9002038BD21462846BDE83840FFF7F3
:10ACA0003FBF2846FFF70CFFF0E7034A034904487B
:10ACB00000F014B9380200208802002041AC0008DE
:10ACC0003C02002070B5A1FB025454B9294600F0A3
:10ACD00031F8064618B12A462146FDF7D7F9304625
:10ACE00070BD0C2200260260F9E700BF70B5104E5F
:10ACF00005460C463368B3B12146284600F008FBF0
:10AD0000431C0CD0C41C24F00304A04205D0211A1B
:10AD1000284600F0FDFA013001D0204670BD4FF00A
:10AD2000FF34204670BD194600F0F2FA3060E3E7C8
:10AD3000580500202DE9F843CD1C064625F00305F3
:10AD400008350C2D38BF0C25002D2EDBA9422CD840
:10AD5000DFF8DC8000F01EF9D8F804207AB1144640
:10AD600003E0636822461C464BB123685B1BF8D4A2
:10AD70000B2B1ED89442636853D0536007E02946DA
:10AD80003046FFF7B3FF431C04461DD00560304634
:10AD900000F002F904F10B00231D20F00700C21A95
:10ADA00001D01B1AA350BDE8F8830C2333600020A8
:10ADB000F9E761199442256014BF5160C8F8041086
:10ADC000635163684B60E2E7D8F804701FB33C46F8
:10ADD0007F68002FFBD123683946304604EB030916
:10ADE00000F096FA814516D123683046ED1A2946BF
:10ADF000FFF77CFF01300ED02368D8F804202B44E5
:10AE00002360536883B1A34203D01A465B689C4217
:10AE1000FBD10023B1E70C233046336000F0BCF8CF
:10AE2000C5E7C8F80430B2E7C8F80470AFE700BF60
:10AE30005805002000293AD038B551F8043C0C1FC1
:10AE40000546002BB8BFE41800F0A4F8224A1368A6
:10AE5000D3B1A34214D81A465B680BB1A342FAD906
:10AE600011685018A04223D02ED821686018834260
:10AE700011D0636054602846BDE8384000F08CB8BB
:10AE80002168601883420DD0284663601460BDE8D5
:10AE9000384000F081B818685B680844C4E90003D2
:10AEA0005460E8E718685B6808442060ECE7704786
:10AEB00020680144501811608342DCD1D3E90004BA
:10AEC0000144C2E90014D6E70C2328462B60BDE8F4
:10AED000384000F061B800BF5C0500202DE9F84360
:10AEE0004FF00009074688461646D6E90154013D51
:10AEF0000FD4A389012B08D9B4F90E302146384666
:10AF0000013302D0C04749EA0009013D68346B1C97
:10AF1000EFD13668002EE8D14846BDE8F88300BF7F
:10AF200010B4034CD4F8E040A4465DF8044B6047ED
:10AF300094020020034649B1FF2A02D801200A707A
:10AF400070478A224FF0FF301A60704708467047FA
:10AF50000CB400B583B004AB53F8042B019300F09C
:10AF600063F803B05DF804EB02B070470EB410B59F
:10AF700083B0074C014605AB206853F8042B0193BE
:10AF800000F052F803B0BDE8104003B0704700BFB6
:10AF900038020020704700BF704700BF9368013B34
:10AFA000002B936011DA10B49469A34209DB0A29DB
:10AFB00007D01368581C1060084619705DF8044BE0
:10AFC00070475DF8044B00F057B91368581C1060C7
:10AFD00008461970704700BF9BB1F8B51344064688
:10AFE0000F46541E5D1E01E0AC4208D03A4614F8EC
:10AFF000011F3046FFF7D2FF431CF5D1F8BD0020FA
:10B00000F8BD0020704700BF936810B514461BB907
:10B0100018460023636010BD00F0D8F90023A36038
:10B020000023636010BD00BF2DE9F04F8B469FB039
:10B0300016461C46824618B1036A002B00F00381B5
:10B04000BBF80C30180740F19880DBF81030002B6B
:10B0500000F0938000237D4F4FF0010805940B937F
:10B0600043F22003ADF83130337835464BB1252B10
:10B0700007D02A4615F8013F0BB1252BF9D1A91BA2
:10B0800060D1002B71D000234FF0FF3201350693C1
:10B0900009938DF85B301C93CDE9072305E0C01BB5
:10B0A000254608FA00F0034306932C46052238464D
:10B0B00014F8011BFEF7EAFD069B26460028EED198
:10B0C000D90602D520228DF85B201A0702D52B2243
:10B0D0008DF85B2029782A2959D1059A111D12680B
:10B0E000002A0591C0F28980099269782E2962D0E0
:10B0F000574C03222046FEF7C9FD30B1001B402209
:10B10000069B013682401343069316F8011B062264
:10B1100050488DF83010FEF7B9FD002873D04E4B23
:10B12000002B5AD005AC4D4B5A4606A95046009408
:10B13000FDF7BEF88146B9F1FF3F16D00B9B4B449B
:10B140000B9391E7013ECDF808900395894674185A
:10B150003546164601E0A54246D05A4615F8011F6D
:10B160005046FFF71BFF0130F5D1BBF80C305B06F2
:10B170000AD40B981FB0BDE8F08F5946504600F036
:10B1800087FC00283FF466AF4FF0FF30F2E7A1F1F3
:10B190003002092A55D8099B00E00134217803EBDD
:10B1A000830302EB4303A1F13002092AF5D92E29CA
:10B1B000264609939CD171782A292ED1059BB21C71
:10B1C000191D1B68002B07930591B8BF4FF0FF3383
:10B1D000B1781646B8BF07938AE7059B073323F07B
:10B1E000070308330593A9E749460B9BDDF8089050
:10B1F0000B44039D0B93737843E7524243F00203E1
:10B200000992069371E705A8144B5A4606A90090C7
:10B210005046FEF7F9FB81468DE7A1F1300200238D
:10B220000136092A07933FF663AF03EB830316F851
:10B23000011F02EB4303A1F13002092AF5D907935C
:10B2400056E72E4652E7FFF73BFCF9E618CB00081D
:10B2500020CB000824CB0008B1820008D9AF000839
:10B2600010B4044C13460A46014620685DF8044BAE
:10B27000FFF7DABE38020020F8B50D460646144640
:10B2800010B1036A002B37D0A269A389A2601A0704
:10B2900019D52369BBB12268EDB26169D31A2F4673
:10B2A000994220DD0133A1680139A160511C216060
:10B2B000157062699A420DD0A389DB0701D50A2D6A
:10B2C00008D03846F8BD2146304600F0E1FB38B9D9
:10B2D0002369E0E721463046FFF7B2FC0028F0D0B2
:10B2E0004FF0FF37EDE721463046FFF7A9FC002875
:10B2F000F6D122680123D6E7FFF7E2FBC4E700BFDF
:10B30000024B0A4601461868FFF7B6BF3802002014
:10B3100038B50022064D044608462A6001F02EFA90
:10B32000431C00D038BD2B68002BFBD0236038BDF8
:10B330006005002010B50C46B1F90E1000F00AFCB3
:10B34000002803DB636D0344636510BDA38923F408
:10B350008053A38110BD00BF002070472DE9F0414C
:10B360000C46B1F90C101F460546CB0516460BD40A
:10B3700021F480513B4632462846A181B4F90E1093
:10B38000BDE8F04100F0CEBCB4F90E10022300225B
:10B3900000F0B2FCB4F90C10EAE700BF10B50C469F
:10B3A000B1F90E1000F0A8FC421CB4F90C3004D026
:10B3B00043F480536065A38110BD23F48053A381BF
:10B3C00010BD00BFB1F90E1000F0D0BA9368002B89
:10B3D00000F0F980B1F90CC01CF0080F2DE9F04F16
:10B3E000904683B081460C4631D00B697BB31CF08C
:10B3F0000207D8F8006038D00027D4F828B0216AB6
:10B40000DFF8C4A23D4655452B463A46484628BF7C
:10B410005346C5B1D847002840F3CB80D8F8083050
:10B4200007442D1A1B1AC8F80830002B00F0B7800B
:10B4300055452B46D4F828B03A46216A28BF5346D2
:10B440004846002DE6D1D6E900750836DBE72146EF
:10B45000484600F01DFB002840F0B080B4F90CC055
:10B46000D8F800601CF00207C6D11CF0010A64D1B4
:10B4700023685746A16818468B46002F59D01CF404
:10B48000007F00F0B680B9420A4600F2E2801CF468
:10B49000906F30D021695D1A636913EB430348BF95
:10B4A00001334FEA630B6B1C3B445A465B4501D9A1
:10B4B0009B461A461CF4806F00F0EA80114648460D
:10B4C000FFF738FC002800F0F9802A462169009037
:10B4D000FEF786F9A289009B22F4906242F0800276
:10B4E000A2815819C4F814B0ABEB05053A46BB4627
:10B4F0002361A56020605146009200F049FAA168DE
:10B5000023683D46009AA1EB0B0100271A44A16075
:10B510002260D8F80830AA445B1BC8F80830002B1A
:10B520003DD02368A168B4F90CC018468B46002FA3
:10B53000A5D1D6E900A708369DE73846BB463D466B
:10B540000097002D41D0002846D0009AA168AA4259
:10B550006369206828BF2A4603EB010A21698842F3
:10B5600002D9524500F38580934275DC5A46216A20
:10B570004846A76AB847B0F1000A1ADD009BB3EB52
:10B580000A0300930FD00120D8F80830D344A5EB6C
:10B590000A05A3EB0A03C8F80830002BD1D100201C
:10B5A00003B0BDE8F08F21464846FFF749FB00286D
:10B5B000EAD0B4F90C3043F04003A3814FF0FF30E0
:10B5C00003B0BDE8F08F0020704775683346083639
:10B5D000002DFAD0D3F800B02A460A215846FEF7CB
:10B5E00055FB002867D00130A0EB0B031A460093EF
:10B5F000ACE722699A4214D36269BA4211D86FF05B
:10B600000043A56A216A4846BB4228BF3B4693FBDC
:10B61000F2F302FB03F35246A847051EC9DD7F1B68
:10B6200077E7B942184628BF39460D4651462A46A3
:10B6300000F0AEF9A1682368491B2B44A160236088
:10B640000029ECD121464846FFF7FAFA0028E6D057
:10B65000AFE7BB463A464EE75946019200F098F9EB
:10B66000019AA36892469B1AA3602368134423603F
:10B6700084E75946524600F08BF923682146484634
:10B6800053442360FFF7DCFA00283FF477AF90E7DC
:10B69000484600F075FA034600287FF422AF21697E
:10B6A0004846FFF7C7FBB4F90C300C2223F08003A7
:10B6B000C9F800207FE76A1C009247E70C22B4F922
:10B6C0000C30C9F8002076E700FCFF7F10B4034C73
:10B6D000D4F8E440A4465DF8044B6047940200208F
:10B6E00082B049B15AB16BB113780B601278101E59
:10B6F00018BF012002B0704701A9002AF3D11046FB
:10B7000002B070476FF00100F4E700BF38B5C46BBA
:10B710000CB1002038BD05468021FFF70BFB024627
:10B72000E86330B1031F7C3243F8044F9342FBD1EE
:10B73000EFE74FF0FF3038BD1F2930B5054683B025
:10B7400008D8C36B0C4653B153F8240043F82420A7
:10B7500003B030BD162303604FF0FF30F8E78021BF
:10B760000192FFF7E7FA019A0346E8630028F3D055
:10B77000011F00F17C05002041F8040FA942FBD114
:10B78000E2E700BF1F2938B505461ED8C26B0C463C
:10B790006AB152F8213053B1012B06D0591C10D098
:10B7A0000021204642F824109847002038BD284642
:10B7B00000F000FB224601462846BDE8384000F074
:10B7C000E3BA162301202B6038BD16234FF0FF305B
:10B7D0002B6038BD1F292AD838B5C36B0C460546E7
:10B7E000A3B153F8242003EB84034AB1511C0BD0BE
:10B7F000012A07D0002520461D609047284638BD05
:10B80000012038BD032038BD022038BD8021FFF75C
:10B8100091FA0346E86338B1021F00217C3042F8F8
:10B82000041F8242FBD1DCE74FF0FF3038BD4FF000
:10B83000FF30704738B51F28124B1D681DD8EA6BC2
:10B84000044662B152F820304BB1012B05D0591C8F
:10B850000FD0002142F820109847002038BD28461C
:10B8600000F0A8FA224601462846BDE8384000F01C
:10B870008BBA162301202B6038BD16234FF0FF3002
:10B880002B6038BD38020020114B1F2870B51E6890
:10B8900008D8F36B04460D464BB153F8240043F827
:10B8A000245070BD162333604FF0FF3070BD8021EF
:10B8B0003046FFF73FFA0346F0630028F4D0021F3A
:10B8C00000217C3042F8041F8242FBD1E5E700BF33
:10B8D0003802002038B50B4B1D68EC6B0CB1002012
:10B8E00038BD80212846FFF725FAE86338B1031FE9
:10B8F00000F17C0243F8044F9342FBD1EFE74FF095
:10B90000FF3038BD3802002038B51F28164B1D689F
:10B9100026D80446E86BA0B150F8242000EB84033D
:10B920004AB1511C0BD0012A07D0002520461D60CA
:10B930009047284638BD012038BD032038BD02207D
:10B9400038BD80212846FFF7F5F9E86340B1031FB1
:10B9500000F17C01002243F8042F8B42FBD1DBE78E
:10B960004FF0FF3038BD00BF3802002038B500224C
:10B97000064D044608462A6000F0C8FE431C00D06D
:10B9800038BD2B68002BFBD0236038BD600500203C
:10B9900088420ED98B1883420BD900EB020C002A87
:10B9A0006ED0624613F801CD994202F801CDF9D16B
:10B9B00070470F2A0FD8034602F1FF3C002A5FD0E0
:10B9C0000CF1010C013B8C4411F8012B614503F88B
:10B9D000012FF9D1704740EA01039B0751D1A2F131
:10B9E000100301F1200C70B523F00F0501F1100ECA
:10B9F00000F110041B09AC445EF8105C0EF1100E4F
:10BA0000103444F8205C5EF81C5C44F81C5C5EF862
:10BA1000185C44F8185C5EF8145CE64544F8145C65
:10BA2000EAD1013312F00C0F02F00F0C01EB0311FD
:10BA300000EB031329D0ACF1040C1C1F8E462CF034
:10BA400003064FEA9C0C1E445EF8045B44F8045F56
:10BA5000B442F9D10CF1010402F0030203EB8403B8
:10BA600001EB840102F1FF3C4AB10CF1010C013BF6
:10BA70008C4411F8012B614503F8012FF9D170BDF9
:10BA8000704702F1FF3C03469AE76246EAE700BFCF
:10BA900038B52F4B05460C461B6813B11A6A002AAD
:10BAA00045D0B4F90C30180716D52269F2B113F05D
:10BAB000010107D0616900204942A060A1613AB14B
:10BAC000002038BD980758BF6169A160002AF7D1EE
:10BAD000190638D4104638BDD9062CD55A0712D4C9
:10BAE000226943F00803A381002AE0D103F4207106
:10BAF000B1F5007FDBD02146284600F073F8B4F999
:10BB00000C302269D3E7616B51B104F144029142D8
:10BB100004D02846FFF78EF9B4F90C300022626396
:10BB20000021226923F02403C4E90021D9E7184643
:10BB3000FEF7C6FFB5E7092243F040032A60A38160
:10BB40004FF0FF3038BD43F04003A381F8E700BF5A
:10BB50003802002038B50C4684461146074D1A4677
:10BB60000023204664462B6000F000FE431C00D0FA
:10BB700038BD2B68002BFBD0236038BD600500204A
:10BB80002DE9F041144641B30AB306460D4600F0D4
:10BB9000F1F88442074602D8B4EB500F13D821467F
:10BBA0003046FFF7C7F8804650B1BC4222462946CE
:10BBB00028BF3A46FDF714FE29463046FFF73AF90A
:10BBC0004046BDE8F081A8464046BDE8F081A04669
:10BBD000FFF730F94046BDE8F0811146BDE8F0417D
:10BBE000FFF7A8B8B1F90C3070B50C46990796B0BC
:10BBF00007D504F1470301222360C4E9043216B0DB
:10BC000070BDB4F90E10054600292ADB6A4600F023
:10BC1000D3F8002823DB4FF480612846019EFFF70C
:10BC200089F8002831D0A38906F470464FF4806269
:10BC3000206043F08003B6F5005F2061A38162615C
:10BC4000DDD1B4F90E10284600F082F80028D6D0D5
:10BC5000A38923F0030343F00103A381CFE7B4F9E1
:10BC60000C3013F0800F284614BF40254FF4806538
:10BC70002946FFF75FF840B1A389206043F08003B5
:10BC8000C4E90405A38116B070BDB4F90C309A055F
:10BC9000B5D423F0030304F14702012143F002036A
:10BCA0002260C4E90421A381A9E700BF70B50C4656
:10BCB000B1F90E1096B0154600291E460FDB6A46F4
:10BCC00000F07AF800280ADB019B4FF4806203F44D
:10BCD0007043A3F50053B3FA83F35B0907E0A2892D
:10BCE000002312F0800F14BF40224FF48062002026
:10BCF00033602A6016B070BD38B50C4684461146D4
:10BD0000074D1A460023204664462B6000F026FDAE
:10BD1000431C00D038BD2B68002BFBD0236038BDFE
:10BD20006005002038B50C4684461146074D1A467A
:10BD30000023204664462B6000F030FD431C00D0F9
:10BD400038BD2B68002BFBD0236038BD6005002078
:10BD500038B50022064D044608462A6000F0EEFC85
:10BD6000431C00D038BD2B68002BFBD0236038BDAE
:10BD70006005002051F8043C002BA3F1040000DB17
:10BD800070470B581844704770B50C460346084D71
:10BD90000026204611461C462E6000F0D7FC431CAE
:10BDA00000D070BD2B68002BFBD0236070BD00BF9E
:10BDB0006005002000F0BABC70B50C460346084D83
:10BDC0000026204611461C462E6000F0A7FC431CAE
:10BDD00000D070BD2B68002BFBD0236070BD00BF6E
:10BDE0006005002081F0004102E000BF83F00043C5
:10BDF00030B54FEA41044FEA430594EA050F08BF06
:10BE000090EA020F1FBF54EA000C55EA020C7FEAC9
:10BE1000645C7FEA655C00F0E2804FEA5454D4EB46
:10BE20005555B8BF6D420CDD2C4480EA020281EA10
:10BE3000030382EA000083EA010180EA020281EA48
:10BE40000303362D88BF30BD11F0004F4FEA01319A
:10BE50004FF4801C4CEA113102D0404261EB4101A9
:10BE600013F0004F4FEA03334CEA133302D052422F
:10BE700063EB430394EA050F00F0A780A4F10104EB
:10BE8000D5F1200E0DDB02FA0EFC22FA05F2801825
:10BE900041F1000103FA0EF2801843FA05F359410B
:10BEA0000EE0A5F120050EF1200E012A03FA0EFC8A
:10BEB00028BF4CF0020C43FA05F3C01851EBE371B4
:10BEC00001F0004507D54FF0000EDCF1000C7EEBD1
:10BED00000006EEB0101B1F5801F1BD3B1F5001F0F
:10BEE0000CD349085FEA30004FEA3C0C04F101042E
:10BEF0004FEA445212F5800F80F09A80BCF1004F57
:10BF000008BF5FEA500C50F1000041EB045141EAD8
:10BF1000050130BD5FEA4C0C404141EB0101013CA1
:10BF200028BFB1F5801FE9D291F0000F04BF014690
:10BF30000020B1FA81F308BF2033A3F10B03B3F162
:10BF400020020CDA0C3208DD02F1140CC2F10C02F2
:10BF500001FA0CF021FA02F10CE002F11402D8BF50
:10BF6000C2F1200C01FA02F120FA0CFCDCBF41EA1C
:10BF70000C019040E41AA2BF01EB0451294330BDEB
:10BF80006FEA04041F3C1CDA0C340EDC04F11404C8
:10BF9000C4F1200220FA04F001FA02F340EA03009F
:10BFA00021FA04F345EA030130BDC4F10C04C4F1E5
:10BFB000200220FA02F001FA04F340EA03002946C5
:10BFC00030BD21FA04F0294630BD94F0000F83F40F
:10BFD000801306BF81F480110134013D4EE77FEAF2
:10BFE000645C18BF7FEA655C29D094EA050F08BF3E
:10BFF00090EA020F05D054EA000C04BF194610461F
:10C0000030BD91EA030F1EBF0021002030BD5FEA62
:10C01000545C05D14000494128BF41F0004130BD8A
:10C0200014F580043CBF01F5801130BD01F00045DE
:10C0300045F0FE4141F470014FF0000030BD7FEA51
:10C04000645C1ABF194610467FEA655C1CBF0B464C
:10C05000024650EA013406BF52EA033591EA030F63
:10C0600041F4002130BD00BF90F0000F04BF00215B
:10C07000704730B54FF4806404F132044FF000058E
:10C080004FF0000150E700BF90F0000F04BF002107
:10C09000704730B54FF4806404F1320410F000456D
:10C0A00048BF40424FF000013EE700BF42004FEA68
:10C0B000E2014FEA31014FEA02701FBF12F07F43E5
:10C0C00093F07F4F81F06051704732F07F4208BF9C
:10C0D000704793F07F4F04BF41F40021704730B5A3
:10C0E0004FF4607401F0004521F000411CE700BFEF
:10C0F00050EA010208BF704730B54FF000050AE072
:10C1000050EA010208BF704730B511F0004502D572
:10C11000404261EB41014FF4806404F132045FEA74
:10C12000915C3FF4D8AE4FF003025FEADC0C18BF1D
:10C1300003325FEADC0C18BF033202EBDC02C2F10F
:10C14000200300FA03FC20FA02F001FA03FE40EAA1
:10C150000E0021FA02F11444BDE600BF70B54FF0A5
:10C16000FF0C4CF4E06C1CEA11541DBF1CEA135583
:10C1700094EA0C0F95EA0C0F00F0DEF82C4481EAEB
:10C18000030621EA4C5123EA4C5350EA013518BF0B
:10C1900052EA033541F4801143F4801338D0A0FBF8
:10C1A00002CE4FF00005E1FB02E506F00042E0FBA5
:10C1B00003E54FF00006E1FB03569CF0000F18BFAB
:10C1C0004EF0010EA4F1FF04B6F5007F64F5407453
:10C1D00004D25FEA4E0E6D4146EB060642EAC621E6
:10C1E00041EA55514FEAC52040EA5E504FEACE2E53
:10C1F000B4F1FD0C88BFBCF5E06F1ED8BEF1004F56
:10C2000008BF5FEA500E50F1000041EB045170BDD1
:10C2100006F0004646EA010140EA020081EA030115
:10C22000B4EB5C04C2BFD4EB0C0541EA045170BD11
:10C2300041F480114FF0000E013C00F3AB8014F18B
:10C24000360FDEBF002001F0004170BDC4F10004D4
:10C25000203C35DA0C341BDC04F11404C4F1200555
:10C2600000FA05F320FA04F001FA05F240EA0200B0
:10C2700001F0004221F0004110EBD37021FA04F6E6
:10C2800042EB06015EEA430E08BF20EAD37070BDA0
:10C29000C4F10C04C4F1200500FA04F320FA05F0FF
:10C2A00001FA04F240EA020001F0004110EBD37001
:10C2B00041F100015EEA430E08BF20EAD37070BD71
:10C2C000C4F1200500FA05F24EEA020E20FA04F34A
:10C2D00001FA05F243EA020321FA04F001F00041F9
:10C2E00021FA04F220EA020000EBD3705EEA430E6A
:10C2F00008BF20EAD37070BD94F0000F0FD101F099
:10C300000046400041EB010111F4801F08BF013CD1
:10C31000F7D041EA060195F0000F18BF704703F00F
:10C320000046520043EB030313F4801F08BF013D96
:10C33000F7D043EA0603704794EA0C0F0CEA135552
:10C3400018BF95EA0C0F0CD050EA410618BF52EA0C
:10C350004306D1D181EA030101F000414FF0000012
:10C3600070BD50EA410606BF1046194652EA430620
:10C3700019D094EA0C0F02D150EA013613D195EA94
:10C380000C0F05D152EA03361CBF104619460AD1DC
:10C3900081EA030101F0004141F0FE4141F47001E6
:10C3A0004FF0000070BD41F0FE4141F4780170BDD6
:10C3B00070B54FF0FF0C4CF4E06C1CEA11541DBF3B
:10C3C0001CEA135594EA0C0F95EA0C0F00F0A7F83D
:10C3D000A4EB050481EA030E52EA03354FEA01316A
:10C3E00000F088804FEA03334FF0805545EA13137D
:10C3F00043EA12634FEA022245EA111545EA106545
:10C400004FEA00260EF000419D4208BF964244F1DB
:10C41000FD0404F5407402D25B084FEA3202B61AFA
:10C4200065EB03055B084FEA32024FF480104FF4CE
:10C43000002CB6EB020E75EB030E22BFB61A754642
:10C4400040EA0C005B084FEA3202B6EB020E75EBD5
:10C45000030E22BFB61A754640EA5C005B084FEA3D
:10C460003202B6EB020E75EB030E22BFB61A75460A
:10C4700040EA9C005B084FEA3202B6EB020E75EB15
:10C48000030E22BFB61A754640EADC0055EA060ED6
:10C4900018D04FEA051545EA16754FEA06164FEA19
:10C4A000C30343EA52734FEAC2025FEA1C1CC0D1C5
:10C4B00011F4801F0BD141EA00014FF000004FF052
:10C4C000004CB6E711F4801F04BF01430020B4F113
:10C4D000FD0C88BFBCF5E06F3FF6AFAEB5EB030CCB
:10C4E00004BFB6EB020C5FEA500C50F1000041EBC8
:10C4F000045170BD0EF0004E4EEA113114EB5C0495
:10C50000C2BFD4EB0C0541EA045170BD41F4801167
:10C510004FF0000E013C90E645EA060E8DE60CEA6F
:10C52000135594EA0C0F08BF95EA0C0F3FF43BAF8C
:10C5300094EA0C0F0AD150EA01347FF434AF95EA43
:10C540000C0F7FF425AF104619462CE795EA0C0F27
:10C5500006D152EA03353FF4FDAE1046194622E7F4
:10C5600050EA410618BF52EA43067FF4C5AE50EACE
:10C5700041047FF40DAF52EA43057FF4EBAE12E7BE
:10C580004FF0FF3C06E000BF4FF0010C02E000BF9F
:10C590004FF0010C4DF804CD4FEA410C7FEA6C5C82
:10C5A0004FEA430C18BF7FEA6C5C1BD001B050EA25
:10C5B000410C0CBF52EA430C91EA030F02BF90EA10
:10C5C000020F0020704710F1000F91EA030F58BFCF
:10C5D000994208BF90422CBFD8176FEAE37040F031
:10C5E000010070474FEA410C7FEA6C5C02D150EACF
:10C5F000013C07D14FEA430C7FEA6C5CD6D152EA8A
:10C60000033CD3D05DF8040B704700BF844610464E
:10C6100062468C461946634600E000BF01B5FFF74D
:10C62000B7FF002848BF10F1000F01BD4DF808ED1D
:10C63000FFF7F4FF0CBF012000205DF808FB00BFEE
:10C640004DF808EDFFF7EAFF34BF012000205DF848
:10C6500008FB00BF4DF808EDFFF7E0FF94BF012095
:10C6600000205DF808FB00BF4DF808EDFFF7CEFF96
:10C6700094BF012000205DF808FB00BF4DF808EDD5
:10C68000FFF7C4FF34BF012000205DF808FB00BFA6
:10C690004FEA410C7FEA6C5C02D150EA013C0AD1BE
:10C6A0004FEA430C7FEA6C5C02D152EA033C02D1B0
:10C6B0004FF0000070474FF0010070474FEA410211
:10C6C00012F5001215D211D56FF47873B3EB6252E4
:10C6D00012D94FEAC12343F0004343EA505311F00B
:10C6E000004F23FA02F018BF404270474FF000009D
:10C6F000704750EA013005D111F0004008BF6FF0DB
:10C70000004070474FF00000704700BF024B5822B6
:10C710004FF0FF301A60704760050020024B58222E
:10C720004FF0FF301A60704760050020024B58221E
:10C730004FF0FF301A60704760050020024B58220E
:10C7400000201A60704700BF60050020024B58228D
:10C750004FF0FF301A60704760050020024B5822EE
:10C760004FF0FF301A60704760050020024B5822DE
:10C770004FF0FF301A60704760050020054A0346FD
:10C78000106810B1034413607047034803441360FA
:10C79000704700BF6405002068050020024B582246
:10C7A0004FF0FF301A60704760050020FEE700BFC1
:10C7B000F8B500BFF8BC08BC9E467047F8B500BF8E
:08C7C000F8BC08BC9E4670475E
:10C7C80005000000190000007D00000000000000C6
:10C7D800000000000000F03F0000000000002440BE
:10C7E80000000000000059400000000000408F4099
:10C7F800000000000088C34000000000006AF84004
:10C808000000000080842E4100000000D012634127
:10C818000000000084D797410000000065CDCD419D
:10C82800000000205FA00242000000E8764837427E
:10C83800000000A2941A6D42000040E59C30A2421C
:10C848000000901EC4BCD64200003426F56B0C4391
:10C858000080E03779C3414300A0D8855734764338
:10C8680000C84E676DC1AB43003D9160E458E14399
:10C87800408CB5781DAF154450EFE2D6E41A4B440E
:10C8880092D54D06CFF08044F64AE1C7022DB54453
:10C89800B49DD9794378EA44BC89D897B2D29C3CF4
:10C8A80033A7A8D523F649393DA7F444FD0FA5328F
:10C8B8009D978CCF08BA5B25436FAC642806C80ADD
:10C8C8000080E03779C34143176E05B5B5B8934684
:10C8D800F5F93FE9034F384D321D30F94877825A50
:10C8E8003CBF737FDD4F15750020202020202020BD
:10C8F8002020282828282820202020202020202008
:10C908002020202020202020208810101010101017
:10C918001010101010101010100404040404040463
:10C9280004040410101010101010414141414141FD
:10C9380001010101010101010101010101010101DF
:10C9480001010101101010101010424242424242EF
:10C9580002020202020202020202020202020202AF
:10C968000202020210101010200000000000000057
:10C9780000000000000000000000000000000000AF
:10C98800000000000000000000000000000000009F
:10C99800000000000000000000000000000000008F
:10C9A800000000000000000000000000000000007F
:10C9B800000000000000000000000000000000006F
:10C9C800000000000000000000000000000000005F
:10C9D800000000000000000000000000000000004F
:10C9E800000000000000000000000000494E460062
:10C9F800696E66004E414E006E616E0030000000A8
:10CA0800496E66696E697479000000004E614E00D7
:10CA18005245454E54206D616C6C6F63207375638D
:10CA280063656564656400002E2E2F2E2E2F2E2E32
:10CA38002F2E2E2F2E2E2F2E2E2F6E65776C69629D
:10CA48002F6C6962632F7374646C69622F64746FEE
:10CA5800612E630042616C6C6F632073756363655C
:10CA68006564656400000000303132333435363790
:10CA780038394142434445460000000030313233E2
:10CA88003435363738396162636465660000000002
:10CA98002C2066756E6374696F6E3A200000000082
:10CAA800617373657274696F6E2022257322206624
:10CAB80061696C65643A2066696C65202225732279
:10CAC8002C206C696E65202564257325730A000087
:10CAD8002E2E2F2E2E2F2E2E2F2E2E2F2E2E2F2E69
:10CAE8002E2F6E65776C69622F6C6962632F737481
:10CAF800646C69622F6D707265632E6300000000BC
:10CB080043000000504F5349580000002E00000019
:10CB1800232D302B20000000686C4C0065666745AB
:03CB28004647007D
:08CB2C00B4CCFF7F0100000002
:04CB34006D80000808
:04CB3800458000082C
:10CB3C003C020020000000001C04002084040020A3
:10CB4C00EC040020000000000000000000000000C9
:10CB5C0000000000000000000000000000000000C9
:10CB6C0000000000000000000000000000000000B9
:10CB7C0000000000000000000000000000000000A9
:10CB8C0000000000030000001C0400204300000013
:10CB9C000000000000000000000000000000000089
:10CBAC000000000000000000000000004300000036
:10CBBC000000000000000000000000000000000069
:10CBCC000000000000000000000000004300000016
:10CBDC000000000000000000000000000000000049
:10CBEC0000000000000000000000000043000000F6
:10CBFC000000000000000000000000000000000029
:10CC0C0000000000000000000000000043000000D5
:10CC1C000000000000000000000000000000000008
:10CC2C0000000000000000000000000043000000B5
:10CC3C0000000000000000000000000000000000E8
:10CC4C000000000000000000000000004300000095
:10CC5C0000000000000000000000000000000000C8
:10CC6C0000000000000000000000000035AF0008CC
:10CC7C00E1B6000800000000F0C8000814CB000862
:10CC8C00A4CA0008A4CA0008A4CA0008A4CA0008C0
:10CC9C00A4CA0008A4CA0008A4CA0008A4CA0008B0
:10CCAC00A4CA0008FFFFFFFFFFFFFFFFFFFFFFFF0E
:10CCBC00FFFF000001004153434949000000000000
:10CCCC000000000000000000000000000000000058
:10CCDC0000000000000041534349490000000000DF
:10CCEC000000000000000000000000000000000038
:08CCFC00000000000000000030
:04000005080080006F
:00000001FF
